:060000000A128A11122809
:10000800FF00030883120313A0000408A1000A08D4
:10001800A2007E08A3000A128A114C280A128A112B
:10002800BF288B178B100B168316031301170A12A0
:100038008A11C5200A128A110A128A11B0200A12DE
:100048008A11053077067804031D2B282C282528CB
:100058000030F7000030F80036280A128A11832091
:100068000A128A1100307802033003197702031C40
:100078003E283F2831280A128A1183200A128A1141
:100088000030F7000030F80025280A128A111228DB
:100098008B1C4F2850285D280B1E532854285D2898
:1000A8007708013EF70078080318013E003EF80083
:1000B8008B102308FE0022088A00210884002008EB
:1000C8008300FF0E7F0E09000030F3000030F400BB
:1000D80078280A128A119C200A128A110130F30723
:1000E8000318F40A0030F40776087402031D7E280A
:1000F80075087302031C812882286D280800831262
:10010800031307150130F5000030F6000A128A11B2
:1001180068200A128A118312031307110130F500AF
:100128000030F6000A128A1168200A128A110800A3
:100138000030F1000030F2000130F1070318F20A34
:100148000030F207003072023E3003197102031CBE
:10015800AE28AF28A028080003100030031801308B
:10016800831603138700031000300318013083122D
:10017800031387000800F701F80183010A128A11A6
:0C018800152801308316031386000800C0
:00000001FF
