:060000000A128A11BC2C5B
:1009780083010A128A111E2E073083120313920074
:10098800F9308316031392000800103083160313FE
:1009980085000130860003100030031801308700FD
:1009A80008008316031381120112811101118110AD
:1009B800011406308312031381000B1108000A1278
:1009C8008A11D5240A128A11831203130B1DED2CE8
:1009D800EE2CE82C0B110630810008000030F200E4
:1009E8000030F300022D0A128A11E3240A128A1138
:1009F8000130F2070318F30A0030F3077308803A4E
:100A0800F1007508803A7102031D0C2D74087202FA
:100A1800031C0F2D102DF72C08000030F1000030BA
:100A2800F20083120313201C1A2D1B2D212D2208DE
:100A3800F1070318F20A2308F20701300310A20D88
:100A4800A30DFF3E031D222D01300310A10CA00CA5
:100A5800FF3E031D292D21082004031D342D352DAB
:100A6800152D7208A101A1077108A001A0070800AF
:100A7800031000300318013083120313A500A71FC9
:100A8800462D472D4F2DA609A709A60A0319A70A1F
:100A9800A5010314A50D2608A0002708A100A2019E
:100AA8008E30F4007408A3002508F5007508A4002A
:100AB8000A128A11A2250A128A11831383120313B8
:100AC8002008A6002108A7002208A80008000C306A
:100AD8008312031397004408A701A7074308A60138
:100AE800A6070A128A113C250A128A118313831257
:100AF80003132608B3002708B4002808B5000030FF
:100B0800B6002030B7004030B8000A128A112427F6
:100B18000A128A118313831203133308BF0034089F
:100B2800C0003508C1000A128A119D260A128A11CE
:100B38008313831203133F089500080083120313DD
:100B48002308031DA82DAF2D220821042004031D0E
:100B5800AE2DAF2DC22D0030A0000030A100003016
:100B6800A2001D2E0130F1007108A3070130031007
:100B7800A20CA10CA00CFF3E031DBB2DFE302205CC
:100B8800031DC72DC82DB62DE52D0130F1007108C4
:100B9800A3070130A007003003110318013E031911
:100BA800D62DA107003003110318013E0319DD2DCE
:100BB800A20701300310A20CA10CA00CFF3E031DDC
:100BC800DE2DFF302205031DEA2DEB2DC92DF62D54
:100BD8000130A30201300310A00DA10DA20DFF3EAC
:100BE800031DEF2DA11FF92DFA2DEC2D2318FD2D36
:100BF800FE2D042EFF30A0057F30A105FF30A20591
:100C08000310A30C2308F100F201F30110300310C4
:100C1800F10DF20DF30DFF3E031D0B2E7108A0041C
:100C28007208A1047308A2042408031D1C2E1D2E9B
:100C3800A21708000A128A11C9240A128A110A1274
:100C48008A11C0240A128A11831203130711003073
:100C5800C5000030C6005C2E0130C5070318C60A5F
:100C68000030C6074608A101A1074508A001A00752
:100C78000530A2000030A3000A128A1111250A12B9
:100C88008A118313831203132108C401C40720089F
:100C9800C301C3070A128A116B250A128A11F4309C
:100CA800F4000130F5000A128A11F2240A128A119E
:100CB80083120313061C612E622E302E952EFF30F0
:100CC800C5070318C60AFF30C6074608A101A107D1
:100CD8004508A001A0070530A2000030A3000A12B1
:100CE8008A1111250A128A1183138312031321080A
:100CF800C401C4072008C301C3070A128A116B255F
:100D08000A128A11F430F4000130F5000A128A112F
:100D1800F2240A128A1183120313C61F942E952EE9
:100D2800632E051E982E992E632E5C2E0A128A11A8
:100D38000028831203133F08F6004008F700410813
:100D4800F8000310770D780DBE00BE08031DAD2E08
:100D5800AE2EB72E0030C2000030C1000030C000F7
:100D68000030BF00232F3F08F6004008F700410875
:100D7800F80017300310F80CF70CF60CFF3E031DB3
:100D8800BE2E7608B900C017FF30BF05FF30C0057A
:100D98000030C1053F08BA004008BB004108BC004C
:100DA800BD018E30BE02BE1FDA2EDB2EF52E3E08A8
:100DB800803A8F3E0318E12EE22EE32EAE2E01304C
:100DC8000310BD0CBC0CBB0CBA0CFF3E031DE42E7B
:100DD8000130F6007608BE07031DF32EF42EE32E2D
:100DE8000C2F18303E02031CFA2EFB2E072FAE2EB6
:100DF8000130F6000310BA0DBB0DBC0DBD0DF60B8E
:100E0800FE2E0130BE02BE08031D0B2F0C2FFC2E38
:100E18003908031D102F1B2FBA09BB09BC09BD09CE
:100E2800BA0A0319BB0A0319BC0A0319BD0A3D080B
:100E3800C2003C08C1003B08C0003A08BF000800D7
:100E4800831203133308A9003408AA003508AB003D
:100E580003102A0D2B0DAD00AD08031D342F352FBF
:100E68003C2F0030B3000030B4000030B500FF2F35
:100E78003608A9003708AA003808AB0003102A0D65
:100E88002B0DB200B208031D4A2F4B2F522F0030F2
:100E9800B3000030B4000030B500FF2F32087B3EAD
:100EA800A9002908AD073308A9003408AA003508A5
:100EB800AB0010300310AB0CAA0CA90CFF3E031DAD
:100EC8005E2F2908B2003608A9003708AA0038089A
:100ED800AB0010300310AB0CAA0CA90CFF3E031D8D
:100EE8006E2F2908AC002C08B2068030A90029080A
:100EF800B205B417B717FF30B605FF30B705003095
:100F0800B8050030AE000030AF000030B000073048
:100F1800B100331C902F912FA12F3608AE07370848
:100F280003110318370A03199A2FAF07380803115A
:100F38000318380A0319A12FB00701300310B50CA4
:100F4800B40CB30CFF3E031DA22F01300310B60DE5
:100F5800B70DB80DFF3E031DAA2F0130B102031DC6
:100F6800B62FB72F8D2F0930B100331CBC2FBD2FE2
:100F7800CD2F3608AE07370803110318370A0319AF
:100F8800C62FAF07380803110318380A0319CD2FE5
:100F9800B00701300310B50CB40CB30CFF3E031DB1
:100FA800CE2F01300310B00CAF0CAE0CFF3E031D6A
:100FB800D62F0130B102031DE22FE32FB92F2E08DF
:100FC800A0002F08A1003008A2002D08A9002908B8
:100FD800A3003208AA002A08A4000A128A11A2252E
:100FE8000A128A118313831203132008B3002108FD
:080FF800B4002208B500080056
:00000001FF
