:060000000A128A11E62E2F
:100DCC0083010A128A11EF2E01308316031385005A
:100DDC0008000A128A1135270A128A110A128A117E
:100DEC00002803100030031801308316031386000B
:100DFC00031000300318013083120313860008001F
:100E0C000030F1000030F2000130F1070318F20A53
:100E1C000030F207003072023E3003197102031CDD
:100E2C00182F192F0A2F08000030F3000030F4009F
:100E3C002A2F0A128A1106270A128A110130F30787
:100E4C000318F40A0030F40776087402031D302FDF
:100E5C0075087302031C332F342F1F2F08000A123E
:100E6C008A11EA260A128A110A128A11F7260A1224
:100E7C008A110030F7000030F80083120313051AB2
:100E8C00482F492F432F6C2FF2010314F20D02301F
:100E9C000A128A118A270A128A11F430F5000130DD
:100EAC00F6000A128A111A270A128A1183120313E6
:100EBC00051A612F622F662F0A30F7000030F800F8
:100ECC000130F7070318F80A0030F80700307802F1
:100EDC000A3003197702031C742F752F4A2F031045
:100EEC00003003180130F20002300A128A118A27EE
:100EFC000A128A11F430F5000130F6000A128A1138
:100F0C001A270A128A110800F1007108023A031D0F
:100F1C00902F912F9A2F7208013A031D962F972F1D
:100F2C009A2F8312031306147108033A031D9F2F83
:100F3C00A02FA92F7208013A031DA52FA62FA92FA8
:100F4C008312031386147108043A031DAE2FAF2FBE
:100F5C00B82F7208013A031DB42FB52FB82F831286
:100F6C00031306157108053A031DBD2FBE2FC72F9D
:100F7C007208013A031DC32FC42FC72F831203130A
:100F8C0086157108023A031DCC2FCD2FD52FF208F0
:100F9C00031DD12FD22FD52F8312031306107108E6
:100FAC00033A031DDA2FDB2FE32FF208031DDF2F8B
:100FBC00E02FE32F8312031386107108043A031DEC
:100FCC00E82FE92FF12FF208031DED2FEE2FF12F53
:100FDC008312031306117108053A031DF62FF72F20
:100FEC00FF2FF208031DFB2FFC2FFF2F831203137F
:040FFC008611080052
:00000001FF
