:060000000A128A11B52F5F
:100F6A0083010A128A11E82F831203131F151F190E
:100F7A00BF2FC02FBC2F1E080800831603131F1093
:100F8A009F101F119F119F13831203131F179F1383
:100F9A009F111F129F121F1408000310003003181C
:100FAA0001308316031387000130850003100030D7
:100FBA000318013086000310003003180130831231
:100FCA000313860008000A128A11D2270A128A110C
:100FDA000A128A11C2270A128A110A128A11B92719
:100FEA000A128A11F1007108831203138600F22F84
:060FFA000A128A11002812
:00000001FF
