:060000000A128A119F2F75
:100F3E0083010A128A11A32F4830F4002C300A12B2
:100F4E008A11C3270A128A11F5000A128A11002883
:100F5E00F1007108831203178D000310003003187F
:100F6E0001308F00831603178C130C148312031792
:100F7E000C08F20072080800F3007408F2007308FF
:100F8E000A128A11DB270A128A1173080A128A11B1
:100F9E00AF270A128A117406031DD62FD72FD92F09
:100FAE000130DA2F00300800F100710883120317A8
:100FBE008D0003100030031801308F0072088C0072
:100FCE00831603178C130C15831203138B135530D2
:100FDE00831603178D00AA308D008C148312031311
:100FEE008B17831603170C118C18FE2FFF2FFB2F58
:020FFE000800E9
:00000001FF
