:060000000A128A11A42E71
:100C0000FE00FE1F082E83137E18831700080800BD
:100C10000408FE0006308A007E0882070034423451
:100C20006F346E346A346F347534723420346C34FB
:100C300065347334203469346E34733474347234EC
:100C40007534203420340034831603130108C1396D
:100C5000810006308312031381000B11342E0A1217
:100C60008A118E260A128A11FF30F0070318F10A42
:100C7000FF30F107FF307106031D402EFF30700674
:100C8000031D432E442E2F2E0800F7000A128A114E
:100C900083260A128A118312031388120812770816
:100CA000F60004300310F60CFF3E031D522E7608AA
:100CB0000F39803888000817081377080F398038F3
:100CC0008800081708130800F7000A128A11832603
:100CD0000A128A1183120313881208167708F60085
:100CE00004300310F60CFF3E031D712E76080F39F9
:100CF000903888000817081377080F399038880053
:100D00000817081308000A128A116E270A128A119E
:100D1000F500F51B8C2E8D2E832E080083120313F5
:100D20000B1D932E942E8E2E0B11080018300A12D4
:100D30008A1145260A128A11080083160313081225
:100D40008812081388130800F801F90183010A12B8
:0C0D50008A11E92E831203138817080093
:100DD2000A128A119D260A128A110A128A11AA2659
:100DE2000A128A110A128A11A3270A128A110130E1
:100DF20083120313A30023080A128A113F270A123F
:100E02008A110A128A1196260A128A11F430F00007
:100E12000130F1000A128A1124260A128A11022FC5
:100E22000A128A110028F4007408F5000001013842
:100E3200F5070001FF3875070A128A1109260A12FE
:100E42008A110038031D262F272F172F7408F00050
:100E5200F101F009F109F00A0319F10A75087007A6
:100E6200F20071080318710AF3007208FF3EF600DF
:100E720073080318013EFF3EF700080083120313B4
:100E8200A0000030A1000030A2005B2F2008210743
:100E92000A128A1109260A128A110A128A11642672
:100EA2000A128A11013083120313A1070318A20A3E
:100EB2000030A20720080A128A1114270A128A1186
:100EC2007708831203132202031D692F7608210279
:100ED200031C6C2F6D2F472F08000F30831603134E
:100EE200880083120313881608120230F0000030C3
:100EF200F1000A128A1124260A128A11831203139C
:100F020008170808F3007308F20003300310F20D0B
:100F1200FF3E031D872F0310720DF039F4000813F2
:100F220008170808F30073080F397404F400081353
:100F3200881203100030031801308316031388004F
:100F4200740808001E30F0000030F1000A128A1105
:100F520024260A128A110310003003180130831666
:100F620003138800831203138817081208138812C8
:100F7200080803388800081708131E30F0000030F4
:100F8200F1000A128A1124260A128A11831203130B
:100F9200080803388800081708131E30F0000030D4
:100FA200F1000A128A1124260A128A1183120313EB
:100FB200080803388800081708131E30F0000030B4
:100FC200F1000A128A1124260A128A1128300A1202
:100FD2008A1145260A128A110F300A128A114526F1
:100FE2000A128A1101300A128A1145260A128A113E
:0E0FF20006300A128A1145260A128A110800DA
:02400E007A3FF7
:00000001FF
